:100000000C94DB3E0C940C3F0C940C3F0C940C3F76
:100010000C940C3F0C940C3F0C940C3F0C940C3F34
:100020000C940C3F0C940C3F0C940C3F0C940C3F24
:100030000C940C3F0D9455060C940C3F0C940C3F03
:100040000C940C3F0C94ED990C940C3F0C940C3FC9
:100050000C940C3F0C940C3F0D94E4190D94FB0789
:100060000C940C3F0C945B960C940C3F0C940C3F3E
:100070000C940C3F0C940C3F0C940C3F0C940C3FD4
:100080000C940C3F0C940C3F0C940C3F0C940C3FC4
:100090000C940C3F0C940C3F0C940C3F0C940C3FB4
:1000A0000C940C3F0C940C3F0C940C3F0C940C3FA4
:1000B0000C940C3F0C940C3F0C940C3F0C940C3F94
:1000C0000C940C3F0C940C3F0C940C3F0C940C3F84
:1000D0000C940C3F0C940C3F0C940C3F0C940C3F74
:1000E0000C940C3F2701D9003F01D1002D01F100F4
:1000F000DD00230107011D013901490145012501E9
:10010000F1000501E900D5001B011F011101F900F3
:100110000F0137011301EF000901CF000D01470165
:10012000150135013701FF000B013B01D300E7004A
:10013000DB001901D7003D01F5000301F300310197
:1001400041012101ED00E500DF004B012F01FD0021
:100150000101084AD73B3BCE016E84BCBFFDC12FD5
:100160003D6C74319ABD56833DDA3D00C77F11BEA8
:10017000D9E4BB4C3E916BAAAABE000000803F05AB
:10018000A84CCDB2D44EB93836A9020C50B99186DC
:1001900088083CA6AAAA2ABE000000803F000D9451
:1001A00059070D94A7040D947E0E0D94E6040D944A
:1001B000020F0D94B4040D94B60E0D94B8040D9472
:1001C000BE1A0D94531E0D94B0220D94A41A0D94D2
:1001D000980E0D94E2040D9411050D94961A0D9449
:1001E00047070D94EB040D94441A0D94180F0D94C9
:1001F0006B040D942B070D94CC1E0D94C81A0D940E
:1002000090070D94D01A0D94320F0D94DE040D94C6
:10021000C2040D944F070D949A070D9463070D9433
:1002200035070D9421070D943F070D947C070D941D
:100230006F6E0D94D60E0D9417070D94C6040D9491
:100240001C070D947C1A0D94BC040D94D8040D94D5
:10025000B1040D943D3E0D94906E0D94AD040D943B
:10026000C41A0D94521A0D948F400D9486070D9464
:10027000AE070D94CA040D94A4070D940D0F0D94B0
:10028000A3040D946E1A0D9472290D94D4040D9448
:100290006D070D94D0040D94C21A4E414E494E493B
:1002A0005459494E46CDCCCC3D0AD7233C17B7D143
:1002B0003877CC2B329595E6241FB14F0A000020E9
:1002C000410000C84200401C4620BCBE4CCA1B0E68
:1002D0005AAEC59D745344207072696E74696E671E
:1002E0002062797465200053696E64205A2D53632F
:1002F000686C697474656E2067616E7A206F6265E0
:100300006E3F004F626120776F7A6B6920646F6A7D
:10031000656368616C7920646F20676F726E656ACF
:100320002072616D793F00436172726F73205A20B1
:10033000697A712E2F6465722E20657374616E2048
:10034000617272696261206D6178696D6F3F004909
:100350002063617272656C6C69205A2073696E2F1C
:1003600064657320736F6E6F20616C74657A7A6157
:10037000206D61783F00446F6A656C79206F62611F
:10038000205A20766F7A696B79206B7E686F726E67
:10039000696D7520646F72617A753F0041726520E6
:1003A0006C65667420616E64207269676874205A97
:1003B0007E63617272696167657320616C6C207520
:1003C000703F004269747465207265696E69676583
:1003D0006E20536965206469652044817365207AC5
:1003E0007572204B616C696272696572756E672EF9
:1003F000204B6C69636B656E2077656E6E20666559
:10040000727469672E00446C612070726177696450
:100410006C2E206B616C69627261636A6920707214
:100420006F737A65206F637A797363696320647987
:10043000737A652E20506F74772E2067757A696BFA
:1004400069656D2E004C696D7069617220626F7113
:1004500075696C6C6120706172612063616C6962A6
:10046000726163696F6E2E20436C69636B206375E4
:10047000616E646F206163616265732E0050756CFC
:10048000697265206C277567656C6C6F207065728A
:10049000206C612063616C696272617A696F6E655C
:1004A0002C20706F69206661726520636C69636BD4
:1004B0002E0050726F2075737065736E6F75206BB0
:1004C000616C696272616369206F636973746574DA
:1004D000652070726F73696D207469736B6F766FCE
:1004E0007520747279736B752E20506F74767264F8
:1004F000746520746C616369746B656D2E00506C5B
:100500006561736520636C65616E20746865206E3B
:100510006F7A7A6C6520666F722063616C696272B3
:100520006174696F6E2E20436C69636B2077686518
:100530006E20646F6E652E004B616C696272696536
:1005400072656E20766F6E2058595A2E204472655F
:1005500068656E205369652064656E204B6E6F7010
:10056000662C20756D2064656E205A2D5363686C6F
:10057000697474656E20626973207A756D20416EAE
:100580007363686C6167207A75206265776567655B
:100590006E2E204B6C69636B656E2077656E6E20E6
:1005A0006665727469672E004B616C696272616383
:1005B0006A612058595A2E2050727A656B726563B1
:1005C0002067616C6B652C206162792070727A659E
:1005D00073756E6163206F73205A20646F20676F9C
:1005E000726E796368206B72616E636F77656B2ED4
:1005F000204E616369736E696A2C20627920706F86
:100600007477696572647A69632E0043616C69620C
:1006100072616E646F2058595A2E204769726120AA
:10062000656C20626F746F6E2070617261207375EB
:1006300062697220656C20636172726F205A206853
:100640006173746120676F6C7065207069657A6191
:1006500073207375706572696F7261732E204465C3
:1006600073707565732068617A20636C69632E000E
:1006700043616C696272617A696F6E652058595A7C
:100680002E2052756F74617265206C61206D616EF1
:100690006F706F6C612070657220616C7A61726539
:1006A00020696C2063617272656C6C6F205A2066E1
:1006B000696E6F20616C6C27616C74657A7A612059
:1006C0006D617373696D612E20436C69636B20707B
:1006D0006572207465726D696E6172652E004B6182
:1006E0006C6962726163652058595A2E204F74619B
:1006F00063656E696D20746C616369746B612070F1
:100700006F73756E7465205A206F737520617A203F
:100710006B7E686F726E696D7520646F72617A7539
:100720002E20506F74767264746520746C616369F6
:10073000746B656D2E0043616C6962726174696EE1
:10074000672058595A2E20526F746174652074685E
:1007500065206B6E6F6220746F206D6F76652074FC
:100760006865205A206361727269616765207570DF
:1007700020746F2074686520656E642073746F70D8
:10078000706572732E20436C69636B207768656EA9
:1007900020646F6E652E004B616C696272696572D0
:1007A000656E20766F6E205A2E2044726568656EE5
:1007B000205369652064656E204B6E6F70662C2037
:1007C000756D2064656E205A2D5363686C6974746E
:1007D000656E20626973207A756D20416E7363685F
:1007E0006C6167207A75206265776567656E2E207B
:1007F0004B6C69636B656E2077656E6E2066657203
:100800007469672E004B616C69627261636A612072
:100810005A2E2050727A656B7265632067616C6B2B
:10082000652C206162792070727A6573756E6163E0
:10083000206F73205A20646F20676F726E7963682F
:10084000206B72616E636F77656B2E204E616369FA
:10085000736E696A2C20627920706F747769657293
:10086000647A69632E0043616C696272616E646FC1
:10087000205A2E204769726120656C20626F746F68
:100880006E207061726120737562697220656C20E0
:10089000636172726F205A20686173746120676FA0
:1008A0006C7065207069657A61732073757065720C
:1008B000696F7261732E204465737075657320686B
:1008C000617A20636C69632E0043616C69627261B6
:1008D0007A696F6E65205A2E2052756F7461726549
:1008E000206C61206D616E6F706F6C61207065723D
:1008F00020616C7A61726520696C20636172726537
:100900006C6C6F205A2066696E6F20616C6C276179
:100910006C74657A7A61206D617373696D612E20E4
:10092000436C69636B20706572207465726D696ECB
:100930006172652E004B616C696272616365205A59
:100940002E204F746163656E696D20746C616369FC
:10095000746B6120706F73756E7465205A206F73AD
:100960007520617A206B7E686F726E696D75206488
:100970006F72617A752E20506F7476726474652080
:10098000746C616369746B656D2E0043616C6962A0
:10099000726174696E67205A2E20526F746174659B
:1009A00020746865206B6E6F6220746F206D6F76A7
:1009B0006520746865205A20636172726961676599
:1009C00020757020746F2074686520656E642073D4
:1009D000746F70706572732E20436C69636B20773F
:1009E00068656E20646F6E652E0057617274656E67
:1009F000206175662041626B7565686C756E672055
:100A0000766F6E2048656174657220756E64204251
:100A100065642E004F637A656B6977616E69652046
:100A20006E6120777963686C6F647A656E696520A2
:100A30006479737A79206920706F646B6C61646B80
:100A4000692E004573706572616E646F20656E6615
:100A50007269616D69656E746F206465206C6120D8
:100A600063616D6120792064656C206578747275AE
:100A7000736F722E00496E20617474657361206417
:100A8000656C207261666672656464616D656E7422
:100A90006F2064656C6C612074657374696E61208D
:100AA000652064656C2070696174746F0043656BC8
:100AB000616E69206E61207A63686C61646E757422
:100AC0006920747279736B79206120706F646C6F28
:100AD0007A6B792E0057616974696E6720666F7250
:100AE000206E6F7A7A6C6520616E64206265642086
:100AF000636F6F6C696E670020766F6E203900201F
:100B00007A2039002064652039002073752039006F
:100B1000207A203900206F662039005665726265A0
:100B200073736572756E6720426564204B616C69F2
:100B3000627269657270756E6B7400506F7072616D
:100B40007769616D2070726563797A796A6E6F7307
:100B5000632070756E6B7475206B616C6962726175
:100B600063796A6E65676F004D656A6F72616E6466
:100B70006F2063616D612070756E746F20646520F5
:100B800063616C6962726163696F6E005065726661
:100B9000657A696F6E2E20696C206C6574746F20A5
:100BA00070756E746F2064692063616C6962726134
:100BB0007A2E005A6C657073756A6920707265735D
:100BC0006E6F7374206B616C69627261636E6968C9
:100BD0006F20626F647500496D70726F76696E6721
:100BE000206265642063616C6962726174696F6E12
:100BF00020706F696E740058595A204B616C69629D
:100C000072696572756E6720696E204F72646E75C9
:100C10006E672E205363686965666865697420771E
:100C2000697264206175746F6D61746973636820A3
:100C30006B6F72726967696572742E004B616C69C3
:100C4000627261636A612058595A207072617769D3
:100C5000646C6F77612E20536B6F737920626564CB
:100C600061206175746F6D617479637A6E69652056
:100C70007779726F776E616E652070727A79206411
:100C800072756B752E0043616C6962726163696F86
:100C90006E2058595A20636F7272656374612E20FA
:100CA0004C6120696E636C696E6163696F6E20735D
:100CB0006520636F72726567697261206175746F18
:100CC0006D61746963616D656E74652E0043616C5E
:100CD000696272617A696F6E2058595A20636F7227
:100CE00072657474612E204C6120646973746F7234
:100CF00073696F6E65207665727261272061757405
:100D00006F6D61746963616D656E746520636F6D8D
:100D100070656E736174612E004B616C6962726103
:100D200063652058595A207620706F7261646B7524
:100D30002E205A6B6F73656E692062756465206141
:100D400075746F6D617469636B79207679726F76F3
:100D50006E616E6F20707269207469736B752E00FE
:100D600058595A2063616C6962726174696F6E20B0
:100D7000616C6C2072696768742E20536B657720F4
:100D800077696C6C20626520636F7272656374654D
:100D900064206175746F6D61746963616C6C792E28
:100DA0000058595A204B616C696272696572756EA0
:100DB0006720696E204F72646E756E672E20582F03
:100DC000592041636873656E2073696E6420657491
:100DD000776173207363686965662E004B616C6987
:100DE000627261636A612058595A20707261776932
:100DF000646C6F77612E204F73696520582F5920DE
:100E00006C656B6B6F20736B6F736E652E20446F18
:100E100062726120726F626F7461210043616C695C
:100E200062726163696F6E2058595A20636F7272E3
:100E3000656374612E204C6F7320656A657320585A
:100E4000202F205920657374616E206C696765726C
:100E5000616D656E746520696E636C696E61646F47
:100E6000732E204275656E2074726162616A6F2113
:100E70000043616C696272617A696F6E2058595AD9
:100E800020636F7272657474612E204173736920E0
:100E9000582F59206C65676765726D656E746520A3
:100EA00073746F7274692E2042656E20666174746B
:100EB0006F21004B616C6962726163652058595AF9
:100EC000207620706F7261646B752E20582F592028
:100ED0006F7379206D69726E65207A6B6F73656EC2
:100EE000652E20446F62726120707261636521001B
:100EF00058595A2063616C6962726174696F6E201F
:100F0000616C6C2072696768742E20582F592061BB
:100F10007865732061726520736C696768746C7999
:100F200020736B657765642E20476F6F64206A6F4E
:100F300062210058595A2D4B616C69627269657261
:100F4000756E67206F6B2E20582F592D4163687383
:100F5000656E2073696E6420696D204C6F742E205D
:100F6000476C7565636B77756E73636821004B61C1
:100F70006C69627261636A612058595A206F6B2EE6
:100F8000204F73696520582F592073612070726F4C
:100F900073746F7061646C652E2047726174756C38
:100FA00061636A65210043616C6962726163696FA4
:100FB0006E2058595A206F6B2E20456A6573205851
:100FC0002F592070657270656E646963756C61720B
:100FD00065732E2046656C696369746163696F6E21
:100FE0006573210043616C696272617A696F6E6535
:100FF0002058595A204F4B2E20476C69206173733B
:101000006920582F5920736F6E6F2070657270655C
:101010006E6469636F6C6172692E20436F6D706CD2
:10102000696D656E746921004B616C696272616300
:10103000652058595A207620706F7261646B752E46
:1010400020582F59206F7379206A736F75206B6F4A
:101050006C6D652E2047726174756C756A6921002C
:1010600058595A2063616C6962726174696F6E20AD
:101070006F6B2E20582F592061786573206172653F
:101080002070657270656E646963756C61722E2084
:10109000436F6E67726174756C6174696F6E7321F2
:1010A0000058595A2D4B616C696272696572756E90
:1010B0006720756E67656E61752E204C696E6B6575
:1010C0007220766F726465726572204B616C696222
:1010D0007269657270756E6B7420697374207A75AD
:1010E0002077656974206E61636820766F726E6523
:1010F0002E004B616C69627261636A612058595AB3
:10110000206E6965646F6B6C61646E612E204C6546
:1011100077792070727A65646E692070756E6B7471
:10112000207A62797420777973756E696574792095
:10113000646F2070727A6F64752E0043616C69620F
:1011400072617A696F6E2058595A20636F6D7072A0
:101150006F6D65746964612E2050756E746F2064C4
:10116000656C616E7465726F20697A7175696572FC
:10117000646F206E6F20616C63616E7A61626C6572
:101180002E0043616C696272617A696F6E652058E6
:10119000595A20636F6D70726F6D657373612E2085
:1011A00050756E746F20616E746572696F72652020
:1011B00073696E697374726F206E6F6E20726167EF
:1011C0006769756E676962696C652E004B616C6951
:1011D00062726163652058595A206E65707265733A
:1011E0006E612E204C65767920707265646E692080
:1011F000626F64206D6F63207670726564752E0077
:1012000058595A2063616C6962726174696F6E200B
:10121000636F6D70726F6D697365642E204C6566C7
:10122000742066726F6E742063616C69627261749F
:10123000696F6E20706F696E74206E6F74207265B6
:1012400061636861626C652E0058595A2D4B616C60
:10125000696272696572756E6720756E67656E6129
:10126000752E20566F7264657265204B616C6962E1
:101270007269657270756E6B74652073696E642037
:101280007A752077656974206E61636820766F7265
:101290006E652E004B616C6962722E2058595A207F
:1012A0006E6965646F6B6C61646E612E2050727A3A
:1012B00065646E69652070756E6B7479206B616C06
:1012C0006962722E205A627974207779732E2064B5
:1012D0006F2070727A6F64752E0043616C69627260
:1012E000617A696F6E2058595A20636F6D70726F02
:1012F0006D65746964612E2050756E746F2064652D
:101300006C616E7465726F73206E6F20616C6361C7
:101310006E7A61626C65732E0043616C6962726102
:101320007A696F6E652058595A20636F6D70726FBD
:101330006D657373612E2050756E746920616E74D3
:101340006572696F7269206E6F6E2072616767697E
:10135000756E676962696C692E004B616C696272B7
:101360006163652058595A206E65707265736E61AD
:101370002E20507265646E69206B616C69627261C7
:10138000636E6920626F6479206D6F63207670727E
:101390006564752E0058595A2063616C69627261E8
:1013A00074696F6E20636F6D70726F6D69736564C1
:1013B0002E2046726F6E742063616C696272617474
:1013C000696F6E20706F696E7473206E6F74207217
:1013D0006561636861626C652E0058595A2D4B61D6
:1013E0006C696272696572756E67206665686C67A4
:1013F000657363686C6167656E2E204C696E6B6502
:101400007220766F726465726572204B616C6962DE
:101410007269657270756E6B7420697374207A7569
:101420002077656974206E61636820766F726E65DF
:101430002E004B616C6962722E2058595A206E69D9
:10144000657564616E612E204C6577792070727AC3
:1014500065646E692070756E6B74207A6279742091
:10146000646F2070727A6F64752E205779726F776F
:101470006E6163206472756B61726B652E004361EF
:101480006C6962726163696F6E2058595A20666197
:101490006C6C61642E2050756E746F2064656C6195
:1014A0006E7465726F20697A7175696572646F20F8
:1014B0006E6F20616C63616E7A61626C652E0043B1
:1014C000616C696272617A696F6E652058595A2041
:1014D00066616C6C6974612E2050756E746F20614A
:1014E0006E746572696F72652073696E6973747268
:1014F0006F206E6F6E207261676769756E676962D3
:10150000696C652E004B616C69627261636520587D
:10151000595A2073656C68616C612E204C65767930
:1015200020707265646E6920626F64206D6F632045
:101530007670726564752E2053726F766E656A746C
:1015400065207469736B61726E752E0058595A204C
:1015500063616C6962726174696F6E206661696C47
:1015600065642E204C6566742066726F6E7420630D
:10157000616C6962726174696F6E20706F696E74FC
:10158000206E6F7420726561636861626C652E0005
:1015900058595A2D4B616C696272696572756E6734
:1015A000206665686C67657363686C6167656E2E3D
:1015B00020566F7264657265204B616C6962726956
:1015C000657270756E6B74652073696E64207A75D0
:1015D0002077656974206E61636820766F726E652E
:1015E0002E004B616C6962722E2058595A206E6928
:1015F000657564616E612E2050727A65642E20706C
:10160000756E6B7479206B616C6962722E207A62E0
:10161000797420646F2070727A6F64752E20577908
:10162000726F776E6163206472756B61726B652E89
:101630000043616C6962726163696F6E2058595A28
:101640002066616C6C61642E2050756E746F20642E
:10165000656C616E7465726F73206E6F20616C6370
:10166000616E7A61626C65732E0043616C696272AF
:10167000617A696F6E652058595A2066616C6C6991
:1016800074612E2050756E746920616E7465726984
:101690006F7269206E6F6E207261676769756E6721
:1016A0006962696C692E004B616C69627261636585
:1016B0002058595A2073656C68616C612E205072F5
:1016C00065646E69206B616C69627261636E69202A
:1016D000626F6479206D6F63207670726564752E19
:1016E0002053726F766E656A7465207469736B61DE
:1016F000726E752E0058595A2063616C696272616E
:1017000074696F6E206661696C65642E2046726F25
:101710006E742063616C6962726174696F6E2070AF
:101720006F696E7473206E6F742072656163686197
:10173000626C652E0058595A2D4B616C6962726952
:101740006572756E67206665686C67657363686C43
:101750006167656E2E2042697474652073636861E9
:1017600075656E2053696520696E20646173204839
:10177000616E64627563682E004B616C69627261B0
:10178000636A612058595A206E6965706F77696580
:10179000647A696F6E612E205370726177647A6922
:1017A00063207720696E737472756B636A692E00AB
:1017B00043616C6962726163696F6E2058595A2087
:1017C00066616C6C6164612E20436F6E73756C741E
:1017D000617220656C206D616E75616C20706F7236
:1017E000206661766F722E0043616C696272617A65
:1017F000696F6E652058595A2066616C6C69746116
:101800002E20536920707265676120646920636FC0
:101810006E73756C7461726520696C206D616E7594
:10182000616C652E004B616C696272616365205862
:10183000595A2073656C68616C612E204E61686C2A
:1018400065646E65746520646F206D616E75616C92
:10185000752E0058595A2063616C6962726174690F
:101860006F6E206661696C65642E20506C656173D3
:101870006520636F6E73756C7420746865206D618C
:101880006E75616C2E0058595A2D4B616C696272ED
:10189000696572756E67206665686C6765736368F5
:1018A0006C6167656E2E204265642D4B616C6962C8
:1018B0007269657270756E6B74206E6963687420EE
:1018C000676566756E64656E2E004B616C69627249
:1018D0002E2058595A206E69657564616E612E20FC
:1018E0004B616C6962726163796A6E792070756EA2
:1018F0006B7420706F646B6C61646B69206E6965DA
:101900007A6E616C657A696F6E792E0043616C69DD
:1019100062726163696F6E2058595A2066616C6CFF
:101920006164612E2050756E746F7320646520634E
:10193000616C6962726163696F6E20656E206C61B3
:101940002063616D61206E6F20656E636F6E7472CF
:1019500061646F732E0043616C696272617A696FB2
:101960006E652058595A2066616C6C6974612E202E
:10197000496C2070756E746F2064692063616C69B6
:101980006272617A696F6E652073756C206C657424
:10199000746F206E6F6E20652720737461746F20E2
:1019A00074726F7661746F2E004B616C6962726144
:1019B00063652058595A2073656C68616C612E20EC
:1019C0004B616C69627261636E6920626F64207042
:1019D0006F646C6F7A6B79206E656E616C657A6589
:1019E0006E2E0058595A2063616C69627261746985
:1019F0006F6E206661696C65642E204265642063A9
:101A0000616C6962726174696F6E20706F696E7467
:101A100020776173206E6F7420666F756E642E0080
:101A2000426974746520616B7475616C6973696572
:101A300072656E2E0050726F737A65207A616B74D6
:101A400075616C697A6F7761630041637475616C6D
:101A5000697A617220706F72206661766F720050D1
:101A60007265676120616767696F726E612E0050F1
:101A7000726F73696D20616B7475616C697A756AD8
:101A800074652E00506C65617365207570677261B6
:101A900064652E004E657565204669726D776172CA
:101AA000652056657273696F6E207665726675651E
:101AB000676261723A005779737A6C61206E6F7752
:101AC0006120776572736A61206669726D776172F1
:101AD000653A004E7565766F206669726D77617242
:101AE0006520646973706F6E69626C653A004E754B
:101AF0006F76612076657273696F6E652064656CC0
:101B0000206669726D7761726520646973706F6EAB
:101B10006962696C65005679736C61206E6F7661DD
:101B2000207665727A65206669726D776172653AB2
:101B3000004E6577206669726D7761726520766503
:101B40007273696F6E20617661696C61626C653A6F
:101B500000756E64204B6E6F7066206472756563ED
:101B60006B656E004E616369736E696A2070727A8C
:101B7000796369736B0050756C73617220656C20BA
:101B80006D616E646F006520636C6963636172658B
:101B9000206D616E6F706F6C61006120737469738A
:101BA0006B6E65746520746C616369746B6F006142
:101BB0006E6420707265737320746865206B6E6F3D
:101BC000620046696C616D656E742065696E6C6556
:101BD00067656E005770726F7761647A2066696C12
:101BE000616D656E7400496E74726F6475636972BD
:101BF0002066696C616D656E746F00496E73657205
:101C00006972652066696C616D656E746F00566CF3
:101C10006F7A74652066696C616D656E7400496EDB
:101C2000736572742066696C616D656E74004661DF
:101C3000726265206E69636874206B6C6172004B20
:101C40006F6C6F72207A616E6965637A79737A2E30
:101C500000436F6C6F72206E6F20686F6D6F6765E9
:101C60006E656F00436F6C6F7265206E6F6E2070D3
:101C700075726F004261727661206E656E692063D5
:101C80006973746100436F6C6F72206E6F742063B0
:101C90006C6561720046696C616D2E206E696368C7
:101CA000742067656C6164656E004272616B2066CA
:101CB000696C616D656E74750046696C2E206E6F7F
:101CC00020696E74726F64756369646F0046696C35
:101CD0002E206E6F6E20636172696361746F0046BF
:101CE000696C616D656E74206E657A617665646598
:101CF0006E0046696C616D656E74206E6F74206C49
:101D00006F61646564005765636873656C206F6B11
:101D10003F0057796D69616E61206F6B3F004361D1
:101D20006D626961646F20636F72726563742E3FC8
:101D30000043616D626961746F20636F72722E3F40
:101D40000056796D656E61206F6B3F004368616E70
:101D500067656420636F72726563746C793F004CD1
:101D600061646520466172626500437A79737A63C3
:101D70007A2E206B6F6C6F72750043616D626961C2
:101D80006E646F20636F6C6F720043617269636190
:101D90006E646F20636F6C6F726500436973746566
:101DA0006E69206261727679004C6F6164696E675A
:101DB00020636F6C6F72005765636873656C206594
:101DC00072666F6C67722E210057796D69616E6162
:101DD000206F6B210043616D62696F20636F7272C7
:101DE0006563746F0043616D62696F20726975731A
:101DF0006369746F21005A6D656E6120757370653B
:101E0000736E6121004368616E676520737563635B
:101E10006573732100416374697665204578747237
:101E2000756465723A2000496E76616C696420655C
:101E3000787472756465720046696C616D2E2061FC
:101E4000757377657266656E005779737577616D26
:101E50002066696C616D656E7400536F6C74616EA1
:101E6000646F2066696C616D656E746F0052696C99
:101E70006173632E2066696C616D656E746F0056C8
:101E800079736F7576616D2066696C616D656E74CE
:101E900000556E6C6F6164696E672066696C616D78
:101EA000656E7400497374204661726265206B6CC4
:101EB00061723F00437A79206B6F6C6F72206A65A4
:101EC000737420637A797374793F00457320656C6D
:101ED000206E7565766F20636F6C6F72206E69740B
:101EE00069646F3F00496C20636F6C6F7265206599
:101EF00027206E697469646F3F004A6520626172D1
:101F000076612063697374613F00497320636F6C6D
:101F10006F7220636C6561723F005A204F66667372
:101F2000657400556E6B6E6F776E20636F6D6D61BB
:101F30006E643A2022004D32303020496E76616C5A
:101F4000696420657874727564657220007A5F6DCB
:101F500061783A20007A5F6D696E3A2000795F6D92
:101F600061783A2000795F6D696E3A2000785F6D84
:101F700061783A20006F70656E00545249474745BA
:101F800052454400785F6D696E3A20005265706F6B
:101F90007274696E6720656E6473746F70207374F9
:101FA000617475730020436F756E7420583A200079
:101FB0004649524D574152455F4E414D453A4D615C
:101FC000726C696E2056312E302E323B2053707267
:101FD000696E7465722F6772626C206D61736875CB
:101FE0007020666F722067656E36204649524D57E5
:101FF0004152455F55524C3A68747470733A2F2FB2
:102000006769746875622E636F6D2F707275736186
:1020100033642F50727573612D69332D506C757355
:102020002F2050524F544F434F4C5F564552534907
:102030004F4E3A312E30204D414348494E455F5472
:102040005950453A5072757361206933204D4B32B7
:102050002045585452554445525F434F554E543ACB
:102060003120555549443A30303030303030302D01
:10207000303030302D303030302D303030302D3069
:1020800030303030303030303030300A004F66661B
:102090000020766F6E203400207A203400206465A2
:1020A000203400207375203400207A203400206F03
:1020B0006620340053756368656E20426564204B6A
:1020C000616C69627269657270756E6B7400537AC7
:1020D000756B616D2070756E6B7475206B616C69CA
:1020E00062726163796A6E65676F20706F646B6C92
:1020F00061646B690042757363616E646F20636134
:102100006D612070756E746F2064652063616C6909
:1021100062726163696F6E00526963657263612008
:1021200064656C206C6574746F2070756E746F20BC
:1021300064692063616C696272617A2E00486C6523
:1021400064616D206B616C69627261636E692062AB
:102150006F6420706F646C6F7A6B79005365617285
:102160006368696E67206265642063616C6962728E
:102170006174696F6E20706F696E74004C6567657D
:102180006E2065696E20426C6174742050617069C4
:10219000657220756E74657220646965204475658A
:1021A0007365207761656872656E6420646572206E
:1021B0004B616C696272696572756E6720646572E5
:1021C0002065727374656E20342050756E6B746573
:1021D0002E2057656E6E20646965204475657365B1
:1021E00020646173205061706965722065696E6654
:1021F00061656E67742C20447275636B6572207321
:102200006F666F727420617573736368616C746557
:102210006E00556D69657363206B6172746B652028
:1022200070617069657275206E6120706F646B6C8F
:102230006164636520692074727A796D616A2070C7
:102240006F64206479737A6120706F64637A61735C
:1022500020706F6D69617275207069657277737A2D
:1022600079636820342070756E6B746F772E204A06
:1022700065736C69206479737A61207A616861633F
:102280007A79206F207061706965722C2077796C83
:1022900061637A206472756B61726B652E00436FA7
:1022A0006C6F63617220756E6120686F6A61206473
:1022B0006520706170656C20736F627265206C615F
:1022C000207375706572666963696520646520694D
:1022D0006D70726573696F6E20647572616E74657E
:1022E000206C612063616C6962726163696F6E204A
:1022F0006465206C6F73207072696D65726F7320F6
:10230000342070756E746F732E205369206C6120B9
:10231000626F7175696C6C61206D7565766520659D
:102320006C20706170656C2C206170616761722037
:10233000696D707265736F726120696E6D65646935
:102340006174616D656E74652E00506F72726520E8
:10235000756E20666F676C696F20736F74746F2081
:102360006C277567656C6C6F20647572616E74653F
:10237000206C612063616C696272617A696F6E655D
:1023800020646569207072696D6920342070756EF3
:1023900074692E20496E206361736F206C27756706
:1023A000656C6C6F206D756F766120696C20666F4F
:1023B000676C696F20737065676E657265207072F7
:1023C0006F6E74616D656E7465206C6120737461ED
:1023D0006D70616E74652E00556D697374657465FA
:1023E000206C69737420706170697275206E612051
:1023F000706F646C6F7A6B752061207564727A758A
:102400006A7465206A656A20706F642074727973DB
:102410006B6F7520626568656D206D6572656E69AC
:10242000207072766E696368203420626F64752E46
:1024300020506F6B756420747279736B61207A61C0
:1024400063687974692070617069722C2076797084
:102450006E657465207469736B61726E752E0050C1
:102460006C6163652061207368656574206F662008
:10247000706170657220756E646572207468652085
:102480006E6F7A7A6C6520647572696E6720746805
:10249000652063616C6962726174696F6E206F663A
:1024A000206669727374203420706F696E74732EA5
:1024B00020496620746865206E6F7A7A6C652063A7
:1024C00061746368657320746865207061706572FB
:1024D0002C20706F776572206F66662074686520A7
:1024E0007072696E74657220696D6D65646961747E
:1024F000656C792E00456E642066696C65206C6998
:10250000737400426567696E2066696C65206C694A
:102510007374004B65696E65204265776567756EFB
:10252000672E0053696E206D6F76696D69656E74F4
:102530006F004E657373756E206D6F76696D656E95
:10254000746F2E004E6F206D6F76652E004472758D
:10255000636B20666F727467657365747A74005775
:102560007A6E6F7769656E6965206472756B750048
:10257000526573756D69656E646F20696D70726503
:1025800073696F6E0052697072656E64692073744E
:10259000616D7061004F626E6F76656E692074695F
:1025A000736B7500526573756D696E672070726923
:1025B0006E7400576172746520617566207573656D
:1025C000722E2E2E004573706572616E646F206FDF
:1025D0007264656E657300417474656E64656E64E3
:1025E0006F207574656E7465005761697420666F3D
:1025F0007220757365722E2E2E005A2D4B616C69F8
:102600006272696572756E67206665686C6765736E
:1026100063686C672E2053656E736F72207A752025
:10262000686F63682061757367656C6F6573742E7E
:1026300020576172746520617566205265736574F8
:102640002E004B616C69627261636A61205A206E70
:1026500069657564616E612E2053656E736F7220BB
:10266000646F746B2E207A61207779736F6B6F2E95
:1026700020437A656B616D206E61207265736574AD
:102680002E004E6976656C6163696F6E2066616CC1
:102690006C6164612E2053656E736F722066756E77
:1026A00063696F6E612064656D61736961646F2039
:1026B00074656D7072616E6F2E2045737065726106
:1026C0006E646F2072657365742E004C6976656C5C
:1026D0006C616D656E746F206C6574746F206661DB
:1026E0006C6C69746F2E526973702073656E736FB2
:1026F00072652074726F70706F2070726573746F82
:10270000496E206174746573612064692072657319
:1027100065742E004B616C696272616365205A209A
:1027200073656C68616C612E2053656E736F7220E7
:102730007365706E756C207072696C697320767940
:10274000736F6B6F2E2043656B616D206E6120721D
:10275000657365742E00426564206C6576656C69EE
:102760006E67206661696C65642E2053656E736FB9
:10277000722074726967676572656420746F6F2078
:10278000686967682E2057616974696E6720666F93
:10279000722072657365742E005A2D4B616C6962EC
:1027A00072696572756E67206665686C67657363CC
:1027B000686C672E2053656E736F72206E69636854
:1027C0007420616E67657363686C6F7373656E2EDA
:1027D0002057617274652061756620526573657457
:1027E0002E004B616C69627261636A61206E69657B
:1027F0007564616E612E2053656E736F72206F6415
:102800006C61637A6F6E79206C75622075737A6B78
:102810006F647A2E206B6162656C2E20437A656B43
:10282000616D206E612072657365742E004E69764D
:10283000656C6163696F6E2066616C6C6164612EAA
:102840002053656E736F7220646573636F6E65638A
:102850007461646F206F206361626C6573206461D2
:102860006E61646F732E204573706572616E646F64
:102870002072657365742E004C6976656C6C616DB1
:10288000656E746F206C6574746F2066616C6C6922
:10289000746F2E2053656E736F7265206469736365
:1028A0006F6E2E206F204361766F2044616E6E2E16
:1028B00020496E20617474657361206469207265BB
:1028C0007365742E004B616C696272616365205A96
:1028D0002073656C68616C612E2053656E736F7236
:1028E000206A65206F64706F6A656E79206E65621C
:1028F0006F20707265727573656E79206B616265A9
:102900006C2E2043656B616D206E6120726573656E
:10291000742E00426564206C6576656C696E672074
:102920006661696C65642E2053656E736F722064F6
:102930006973636F6E6E6563746564206F72206384
:1029400061626C652062726F6B656E2E20576169E3
:1029500074696E6720666F722072657365742E00ED
:102960005A2D4B616C2E206665686C6765736368D1
:102970006C672E2053656E736F72206E6963687486
:102980002061757367656C6F6573742E205363687F
:102990006D75747A652044756573653F2057617263
:1029A00074652061756620525354004B616C6962F6
:1029B0007261636A61206E69657564616E612E2063
:1029C00053656E736F72206E696520646F746B6EF1
:1029D000616C2E205A616E6965637A79737A2E2054
:1029E0006479737A613F20437A656B616D206E6113
:1029F0002072657365742E004E6976656C6163693B
:102A00006F6E2066616C6C6164612E2053656E731D
:102A10006F72206E6F2066756E63696F6E612E2017
:102A20004573636F6D62726F7320656E20426F71C4
:102A300075692E3F204573706572616E646F2072F8
:102A4000657365742E004C6976656C6C616D656E9E
:102A5000746F206C6574746F2066616C6C69746F40
:102A60002E4E6F5269737053656E736F722052658C
:102A70007369647569207375207567656C6C6F3F49
:102A800020496E20617474657361206469207265E9
:102A90007365742E004B616C696272616365205AC4
:102AA0002073656C68616C612E2053656E736F7264
:102AB000206E657365706E756C2E205A6E65636945
:102AC0007374656E6120747279736B613F20436526
:102AD0006B616D206E612072657365742E004265B6
:102AE00064206C6576656C696E67206661696C65EB
:102AF000642E2053656E736F72206469646E742057
:102B0000747269676765722E20446562726973200A
:102B10006F6E206E6F7A7A6C653F205761697469B9
:102B20006E6720666F722072657365742E00536342
:102B3000686C61662E2E2E00456E2065737065727E
:102B40006100536F7370656E73696F6E652E2E2E04
:102B500000536C6565702E2E2E0022206661696C14
:102B600065643A204275666665722066756C6C21F4
:102B700000456E717565696E6720746F20746865B5
:102B80002066726F6E743A2022002200456E7175C5
:102B900065696E6720746F207468652066726F6E59
:102BA000743A2022000A002F00D5020A002E0044A9
:102BB000656C6574696F6E206661696C65642C2054
:102BC00046696C653A200046696C652064656C65F1
:102BD0007465643A002E009C0376034F03270303B9
:102BE00003E702FE04B2047D0445040604C3033671
:102BF00007DE0670060B06A80538058B093509C9DE
:102C000008660805089707D50AAD0A750A430A142D
:102C10000AEA09536176696E672062656420636120
:102C20006C6962726174696F6E20766563746F722D
:102C30007320746F20454550524F4D00506572709F
:102C4000656E646963756C6172697479005A657246
:102C50006F20706F696E7420636F72726563746940
:102C60006F6E3A005920766563746F72206C656EE2
:102C70006774683A005820766563746F72206C65DB
:102C80006E6774683A000000E442FCFFFFBF00007A
:102C900057430000C0420000E442000042430000ED
:102CA00040410000C042417420592D34004174203D
:102CB000593000626F74746F6D00746F7000005053
:102CC0006F696E742068656967687420746F6F201F
:102CD000736D616C6C3A20007269676874006C6592
:102CE00066740000506F696E7420776964746820A0
:102CF000746F6F20736D616C6C3A2000002C2000A3
:102D00003A200046696E616C2063616C63756C618A
:102D10007465642062656420706F696E742000437E
:102D2000616C63756C6174696F6E206F6620746886
:102D300065206D616368696E6520736B65772061DE
:102D40006E64206F6666736574206661696C656485
:102D50002E00002C20003A200046696E616C206D28
:102D6000656173757265642062656420706F696E59
:102D700074200000206661696C65642E204C6F77BA
:102D80006572696E67207A20746F20002C20697448
:102D900065726174696F6E2000496D70726F76693B
:102DA0006E672062656420706F696E742000002C6D
:102DB000207A002C20697465726174696F6E20003E
:102DC000496D70726F76696E672062656420706FFE
:102DD000696E742000417420592D340041742059CB
:102DE0003000150B100B0A0B040BFF0AF80AD70B67
:102DF000B30B8C0B680B3B0B1B0B600D190DCD0C33
:102E0000860C3C0CF70BF00EB30E710E1C0EDC0D95
:102E1000A10D60102810E40FA60F6E0F330F0012E3
:102E2000CC1182113B11F210A11095135A131913F2
:102E3000DA12941249124C150515BF147E1432147F
:102E4000DA13F516A7166A163116E21590155318FF
:102E50002518E817B01779173517E319A919561966
:102E60000C19CA188618841A6F1A5F1A4A1A351A6A
:102E7000201A00311B161BEE1AD31AB61A941A50D8
:102E80004944204175746F74756E652066696E697A
:102E900073686564212050757420746865206C61C6
:102EA0007374204B702C204B6920616E64204B643E
:102EB00020636F6E7374616E74732066726F6D2021
:102EC00061626F766520696E746F20436F6E66690C
:102ED0006775726174696F6E2E68005049442041B5
:102EE00075746F74756E65206661696C6564212008
:102EF00074696D656F75740020403A006F6B2054E3
:102F00003A006F6B20423A00504944204175746F7B
:102F100074756E65206661696C6564212054656D09
:102F2000706572617475726520746F6F206869676F
:102F30006800204B643A2000204B693A2000204B67
:102F4000703A200020436C617373696320504944D8
:102F500020002054753A2000204B753A2000206D47
:102F600061783A2000206D696E3A200020643A2092
:102F70000020626961733A200053657474696E675A
:102F8000732053746F7265640046696C616D656E81
:102F9000742073657474696E67733A204469736151
:102FA000626C6564002020204D32303020440046A1
:102FB000696C616D656E742073657474696E677396
:102FC0003A002020204D3230392053004175746F73
:102FD0002D526574726163743A20533D3020746FD2
:102FE0002064697361626C652C203120746F2069E4
:102FF0006E7465727072657420657874727564653C
:103000002D6F6E6C79206D6F766573206173207201
:1030100065747261637473206F72207265636F767A
:103020006572696573002046002020204D323038DB
:103030002053005265636F7665723A20533D4578A0
:10304000747261206C656E67746820286D6D29202C
:10305000463A537065656420286D6D2F6D290020F8
:103060005A002046002020204D3230372053005295
:103070006574726163743A20533D4C656E67746881
:1030800020286D6D2920463A537065656420286DAF
:103090006D2F6D29205A3A205A4C69667420286D8C
:1030A0006D29002044002049002020204D33303479
:1030B0002050005049442068656174626564207343
:1030C000657474696E67733A0020440020490020DB
:1030D00020204D3330312050005049442073657416
:1030E00074696E67733A00205A0020590020204D01
:1030F000323036205800486F6D65206F6666736504
:103100007420286D6D293A00204500205A0020596E
:103110000020580020420020540020204D3230353D
:10312000205300416476616E636564207661726944
:1031300061626C65733A20533D4D696E206665652A
:10314000647261746520286D6D2F73292C20543DA5
:103150004D696E2074726176656C20666565647277
:1031600061746520286D6D2F73292C20423D6D6997
:103170006E696D756D207365676D656E7420746919
:103180006D6520286D73292C20583D6D6178696D1F
:10319000756D205859206A65726B20286D6D2F73EC
:1031A000292C20205A3D6D6178696D756D205A205B
:1031B0006A65726B20286D6D2F73292C2020453D88
:1031C0006D6178696D756D2045206A65726B202888
:1031D0006D6D2F73290020540020204D3230342093
:1031E0005300416363656C65726174696F6E3A2068
:1031F000533D616363656C65726174696F6E2C2009
:10320000543D7265747261637420616363656C65BB
:10321000726174696F6E00204500205A00205900C9
:1032200020204D3230312058004D6178696D756D28
:1032300020416363656C65726174696F6E20286DEF
:103240006D2F7332293A00204500205A0020590082
:1032500020204D3230332058004D6178696D756DF6
:103260002066656564726174657320286D6D2F73C7
:10327000293A00204500205A0020590020204D39CD
:103280003220580053746570732070657220756E1B
:1032900069743A00AF1B9A1B861B761B641B511B7B
:1032A0001E1C0E1CFB1BE61BD41BC21B851C741CA6
:1032B000641C511C3F1C2E1CF21CDF1CCD1CB91CB5
:1032C000AA1C951C4C1D411D311D1E1D121D061DE5
:1032D000A91D9B1D8A1D7A1D6A1D5F1D051EF61DF9
:1032E000E51DD51DC91DB71D2200151E271E540042
:1032F000496E76616C6964205420636F64652E00AA
:10330000496E76616C6964204D20636F64652E00A0
:10331000911E7F1E6D1E5A1E491E381E0A1FFA1E60
:10332000E51ECB1EB41EA41E4D323230205325693B
:1033300000203A2000001A1F4C414E472053454CB4
:1033400020464F52434544002200231F361F4D1F85
:10335000551F5D1F651F6D1F751F7A1F841F8C1FF2
:10336000205A3A0020593A00A51F20453A00205A19
:103370003A0020593A00583A00B01F2E0020008D24
:103380002020423A0020453A00543A0020573A00A3
:1033900020453A00543A002042403A0020403A008A
:1033A000202F003A00205400202F0020423A002015
:1033B0002F006F6B20543A00AE20A920A3209D203F
:1033C000982091205C213D211821F520CE20B420A9
:1033D0005F24D8234A239E2212227C212569206D56
:1033E000696E2C2025692073656300F5240325444C
:1033F0002544253225232544251325A425952585F7
:103400002570255F254D25E925E925D725C525E921
:1034100025B325496E76616C6964204D20636F6425
:1034200065004D65736820626564206C6576656C27
:10343000696E67206E6F74206163746976652E0013
:103440000A002020000A4D65617375726564207062
:103450006F696E74733A000A5A207365617263680B
:10346000206865696768743A20002C004E756D20ED
:10347000582C593A2000206D6963726F6E730045B5
:10348000786365737369766520626564206C657620
:10349000656C696E6720636F7272656374696F6EC5
:1034A0003A200056271427CB2682264226FA2513D7
:1034B00029C52878282D28E2279927DE2A952A462B
:1034C0002AF829AB296029473238205730000A00F2
:1034D000205A3A200020593A200020583A20005122
:1034E0002B512B422B382B512B2E2B00292C2065B6
:1034F00072726F723A20002C2000293B2074617296
:103500006765743A2028002C2000293B206D6561F6
:1035100073757265642D636F727265637465643A66
:103520002028002C20006D656173757265643A2057
:103530002800706F696E74202300446966666572A6
:10354000656E636520616674657220636F72726573
:103550006374696F6E3A2000002C200063656E74FE
:1035600065722C2061646A75737465643A2000008A
:103570002C20005920766563746F722C2061646A78
:1035800075737465643A2000002C2000582076651D
:1035900063746F722C2061646A75737465643A2079
:1035A0000000636E74725B315D3A0000636E74728A
:1035B0005B305D3A0046696E616C20636E74722008
:1035C00076616C7565733A0000000077793A000007
:1035D000636E74725B315D3A0000576569676874A9
:1035E0005F793A000077783A0000636E74725B305E
:1035F0005D3A00005765696768745F783A00005665
:10360000657279206C6974746C6520736B657720C2
:1036100064657465637465642E204F7274686F67A7
:103620006F6E616C697A696E672074686520617875
:1036300065732E0000292C206572726F723A20008B
:103640002C2000293B207461726765743A202800A1
:103650002C2000293B20636F727265637465643AA5
:103660002028002C2000206D656173757265643A16
:10367000202800706F696E742023004572726F728B
:1036800020616674657220636F7272656374696F1E
:103690006E3A2000002C200063656E746572206E07
:1036A00065772C20696E7665727465643A20000037
:1036B0002C20005920766563746F72206E65772C1C
:1036C00020696E7665727465643A2000002C2000D3
:1036D0005820766563746F72206E65772C20696E52
:1036E0007665727465643A2000002C2000636F7266
:1036F00072656374696F6E20616E676C65733A20E2
:1037000000002C2000636F72726563746564206131
:103710006E676C65733A2000002C2000636F727234
:10372000656374656420782F793A2000002C2000AE
:103730002C20002C2000636F7272656374696F6EB9
:1037400020766563746F723A2000697465726174E3
:10375000696F6E3A200000292C206572726F723AF0
:1037600020002C2000293B207461726765743A2088
:1037700028002C2000206D656173757265643A2005
:103780002800706F696E74202300002C2000636590
:103790006E7465722C20696E697469616C3A2000E0
:1037A000002C20005920766563746F722C20696E9E
:1037B000697469616C3A2000002C200058207665FD
:1037C00063746F722C20696E697469616C3A2000B1
:1037D000656E717565696E67202200446F6E6520A5
:1037E0007072696E74696E672066696C65004E6FF1
:1037F000204C696E65204E756D6265722077697424
:103800006820636865636B73756D2C204C617374FD
:10381000204C696E653A20004E6F20436865636BEB
:1038200073756D2077697468206C696E65206E759C
:103830006D6265722C204C617374204C696E653A20
:103840002000636865636B73756D206D69736D61CE
:103850007463682C204C617374204C696E653A2047
:10386000004C696E65204E756D626572206973202B
:103870006E6F74204C617374204C696E65204E75B8
:103880006D6265722B312C204C617374204C696E13
:10389000653A200053746F726564207365747469AF
:1038A0006E6773207265747269657665640048613D
:1038B0007264636F6465642044656661756C74202E
:1038C00053657474696E6773204C6F61646564003E
:1038D00022206661696C65643A204275666665728D
:1038E0002066756C6C21002200D037250020202036
:1038F0002020200020202020202000455241534934
:103900004E4720616C6C2064617461004661637491
:103910006F7279205245534554004D383420582059
:1039200059205A204500256920686F75727320253B
:1039300069206D696E7574657300DB3754494D45B8
:103940004F55543A00EE371838423861384D31310E
:10395000300046756C6C2052582042756666657260
:10396000004465722041627374616E64207A7769E5
:10397000736368656E2064657220537069747A653C
:103980002064657220447565736520756E642064DB
:1039900065722042656420697374206E6F636820CD
:1039A0006E696368742065696E67657374656C6CB5
:1039B000742E20426974746520666F6C67656E2092
:1039C0005369652064656D2048616E646275636843
:1039D0002C2046697273742073746570732C207385
:1039E000656374696F6E204669727374206C6179C7
:1039F00065722063616C6962726174696F6E2E001A
:103A00004F646C65676C6F7363206479737A792097
:103A10006F6420706F646B6C61646B69206E6965A4
:103A2000206A65737420736B616C6962726F776171
:103A30006E612E20506F73746570756A207A676F9F
:103A4000646E6965207A20696E737472756B636A3F
:103A50006120726F7A647A69616C205A61637A7945
:103A60006E616D792C20706F64726F7A647A69610F
:103A70006C204B616C69627261636A612070696578
:103A80007277737A656A20776172737477792E0022
:103A900044697374616E63696120656E7472652038
:103AA0006C612070756E7461206465206C612062A9
:103AB0006F7175696C6C612079206C612073757011
:103AC00065726669636965206465206C6120636165
:103AD0006D61206E6F2066696A6164612061756E38
:103AE0002E20506F72206661766F72207369676155
:103AF00020656C206D616E75616C2C20636170694E
:103B000074756C6F2046697273742073746570737A
:103B10002C2073656363696F6E204669727374202D
:103B20006C617965722063616C6962726174696F3E
:103B30006E2E0044697374616E7A61207472612024
:103B40006C612070756E74612064656C6C2775679C
:103B5000656C6C6F2065206C612073757065726692
:103B6000696369652064656C206C6574746F206E90
:103B70006F6E20616E636F726120696D706F737418
:103B8000612E20536920707265676120646920731B
:103B900065677569726520696C206D616E75616C11
:103BA000652C2063617069746F6C6F204669727355
:103BB000742073746570732C2073657A696F6E65F9
:103BC000204669727374206C617965722063616C40
:103BD0006962726174696F6E2E004E656E69207A3B
:103BE0006B616C6962726F76616E6120767A646176
:103BF0006C656E6F737420747279736B79206F6467
:103C0000207469736B6F766520706F646C6F7A6B6C
:103C1000792E20506F73747570756A746520707298
:103C20006F73696D20706F646C65206D616E756176
:103C30006C752C206B617069746F6C61205A6163C4
:103C4000696E616D652C206F6473746176656320A5
:103C50004E6173746176656E69207072766E69204C
:103C60007672737476792E0044697374616E63653D
:103C7000206265747765656E20746970206F6620B8
:103C8000746865206E6F7A7A6C6520616E6420744A
:103C9000686520626564207375726661636520687B
:103CA0006173206E6F74206265656E207365742089
:103CB0007965742E20506C6561736520666F6C6C3D
:103CC0006F7720746865206D616E75616C2C206360
:103CD00068617074657220466972737420737465CC
:103CE00070732C2073656374696F6E2046697273FC
:103CF00074206C617965722063616C6962726174B1
:103D0000696F6E2E0044657220447275636B657234
:103D1000207775726465206E6F6368206E696368D2
:103D200074206B616C696272696572742E204269DD
:103D300074746520666F6C67656E205369652064D6
:103D4000656D2048616E64627563682C204B6170FC
:103D50006974656C2046697273742073746570733E
:103D60002C2041627363686E6974742043616C69CE
:103D700062726174696F6E20666C6F772E00447298
:103D8000756B61726B61206E6965207A6F73746107
:103D90006C61206A65737A637A6520736B616C6904
:103DA00062726F77616E612E2050726F737A652038
:103DB0006B6965726F7761632073696520696E73E3
:103DC0007472756B636A612C20726F7A647A6961B0
:103DD0006C205A61637A796E616D792C20706F6402
:103DE000726F7A647A69616C2053656C667465736E
:103DF000742E00496D707265736F7261206E6F2052
:103E0000657374612063616C6962726164612074BE
:103E10006F64617669612E20506F72206661766FE3
:103E200072207573617220656C206D616E75616CB6
:103E30002C20656C206361706974756C6F20466915
:103E40007273742073746570732C2073656C656372
:103E500063696F6E2043616C6962726174696F6E31
:103E600020666C6F772E005374616D70616E74659F
:103E700020616E636F7261206E6F6E2063616C698A
:103E800062726174612E20536920707265676120CF
:103E90006469207365677569726520696C206D615E
:103EA0006E75616C652C2063617069746F6C6F2036
:103EB0005052494D492050415353492C2073657A43
:103EC000696F6E652064656C6C612063616C69620A
:103ED00072617A696F6E652E005469736B61726EE0
:103EE00061206E6562796C61206A65737465207A01
:103EF0006B616C6962726F76616E612E20506F73B8
:103F0000747570756A74652070726F73696D207056
:103F10006F646C65206D616E75616C752C206B61D2
:103F20007069746F6C61205A6163696E616D652C94
:103F3000206F6473746176656320506F737475705D
:103F4000206B616C6962726163652E005072696EEC
:103F500074657220686173206E6F74206265656E8F
:103F60002063616C69627261746564207965742E86
:103F700020506C6561736520666F6C6C6F77207480
:103F80006865206D616E75616C2C2063686170746A
:103F900065722046697273742073746570732C2087
:103FA00073656374696F6E2043616C6962726174DA
:103FB000696F6E20666C6F772E002020506C616EEA
:103FC0006E657242756666657242797465733A20F1
:103FD000002046726565204D656D6F72793A20004C
:103FE000207C20417574686F723A2000204C617308
:103FF0007420557064617465643A200020536F66C4
:10400000747761726520526573657400205761741E
:104010006368646F67205265736574002042726F35
:10402000776E206F75742052657365740020457833
:104030007465726E616C20526573657400506F77A1
:1040400065725570006572726F722077726974695B
:104050006E6720746F2066696C6500656E647374AA
:104060006F7073206869743A2000446F6E65207326
:104070006176696E672066696C652E006F6B004122
:104080006C6C20646174610053686970696E6720AC
:10409000707265700053746174697374696373003E
:1040A0004C616E67756167650050525553413344EA
:1040B000465700683CDA3B333B903A003A61394C52
:1040C0003FD93E673EF33D7E3D053D466163746FDB
:1040D000727920524553455400BA3FD13F41707226
:1040E000202031203230313700436F6D70696C65AC
:1040F000643A2000286E6F6E652C206465666175D9
:104100006C7420636F6E6669672900E03F417072CE
:1041100020203120323031372032303A33373A34B0
:104120003400EC3FFC3F0C401C402D403D4073747C
:10413000617274002055706C6F616420696E20702C
:10414000726F67726573730045405A00205A3A00D7
:10415000590020593A00580020583A005B406A4004
:104160007C404D32390020746F6F206C6F6E672079
:10417000657874727573696F6E2070726576656E9E
:104180007465640020636F6C642065787472757365
:10419000696F6E2070726576656E74656400537425
:1041A00065707261746520746F6F20686967683A22
:1041B0002000664184419E4124F4D43050C38E20B7
:1041C000C2A24017828B7011127A910D816CD90AAC
:1041D000A861E108C7586607615143061E4B5D059B
:1041E000C145A7041A411104093D980371393103EF
:1041F0004036DB0265339102D4305402802E1D021A
:10420000632CEE01752AC501B028A0011027810199
:104210008F2564012B244B01E0223401AC211F01C6
:104220008D200D01801FFC00841EED00971DDF0016
:10423000B81CD200E61BC600201BBC00641AB200EA
:10424000B219A8000A19A0006A189900D1179100A4
:1042500040178B00B516840031167E00B315790027
:104260003A157300C7146F0058146A00EE13660005
:104270008813630025135E00C7125B006C125700A1
:1042800015125400C111510070114F0021114B0043
:10429000D61049008D10470046104400021042001D
:1042A000C00F4000800F3E00420F3C00060F3B0055
:1042B000CB0E3800930E37005C0E3500270E34000D
:1042C000F30D3200C10D3100900D3000600D2E0055
:1042D000320D2D00050D2C00D90C2B00AE0C290041
:1042E000850C29005C0C2700350C27000E0C2600DD
:1042F000E80B2400C40B2400A00B23007D0B23003B
:104300005A0B2100390B2100180B2000F80A1F005E
:10431000D90A1E00BB0A1E009D0A1D00800A1D004E
:10432000630A1C00470A1B002C0A1B00110A1A0012
:10433000F7091A00DD091900C4091900AB091900B1
:10434000920917007B091800630917004C09160031
:1043500036091600200916000A091500F50815008F
:10436000E0081400CC081400B8081400A4081400D5
:10437000900813007D0812006B0813005808120003
:104380004608120034081100230811001208110019
:1043900001081100F0071000E0071000D00710001E
:1043A000C0071000B0070F00A107100091070E0012
:1043B00083070F0074070F0065070E0057070E00F4
:1043C00049070E003B070D002E070E0020070D00C9
:1043D00013070D0006070D00F9060C00ED060D0091
:1043E000E0060C00D4060C00C8060C00BC060C004D
:1043F000B0060C00A4060B0099060C008D060B00FD
:1044000082060B0077060B006C060B0061060A00A3
:1044100057060B004C060A0042060A0038060A003E
:104420002E060A0024060A001A060A0010060900D1
:1044300007060A00FD050900F4050900EB0509005F
:10444000E2050900D9050900D0050900C7050900E2
:10445000BE050900B5050800AD050800A505090061
:104460009C050800940508008C05080084050800D8
:104470007C050800740508006C0507006505080048
:104480005D050700560508004E05070047050700B3
:104490004005080038050700310507002A05070018
:1044A000230507001C050600160507000F05070079
:1044B0000805060002050700FB040600F5040700D6
:1044C000EE040600E8040600E2040700DB04060030
:1044D000D5040600CF040600C9040600C304060084
:1044E000BD040600B7040600B1040500AC040600D4
:1044F000A6040600A00405009B0406009504050020
:10450000900406008A040500850405008004060066
:104510007A04050075040500700405006B040500AD
:1045200066040500610405005C04050057040500ED
:10453000520405004D04050048040500430405002D
:104540003E0404003A04050035040500300404006C
:104550002C04050027040400230405001E040400A5
:104560001A04040016040500110404000D040400DC
:10457000090405000404040000040400FC03040012
:10458000F8030400F4030400F0030400EC03040047
:10459000E8030400E4030400E0030400DC03040077
:1045A000D8030400D4030400D0030400CC030400A7
:1045B000C8030300C503030024F404D9201BC40C62
:1045C0005C0E9804C4095F0265077101F405F900E7
:1045D000FB04B30048048700C10369005803550079
:1045E00003034500BE023A008402310053022A0050
:1045F0002902250004022000E4011C00C801190062
:10460000AF0117009801140084011300710110001C
:104610006101100051010E0043010D0036010B0035
:104620002B010B0020010B00150109000C010900F2
:1046300003010800FB000800F3000800EB0007007E
:10464000E4000600DE000600D8000600D2000600E6
:10465000CC000500C7000500C2000500BD00040035
:10466000B9000400B5000400B1000400AD0004006E
:10467000A9000400A5000300A20003009F0004009D
:104680009B000300980003009500020093000300C4
:10469000900003008D0002008B00030088000200E0
:1046A0008600020084000300810002007F000200F7
:1046B0007D0002007B00020079000200770001000B
:1046C0007600020074000200720001007100020016
:1046D0006F0002006D0001006C0002006A00010022
:1046E000690002006700010066000100650001002A
:1046F000640002006200010061000100600001002E
:104700005F0002005D0001005C0001005B00010031
:104710005A00010059000100580001005700010033
:104720005600010055000100540001005300000034
:10473000530001005200010051000100500001002F
:104740004F0001004E0000004E0001004D0001002E
:104750004C0001004B0000004B0001004A0001002A
:104760004900010048000000480001004700010026
:104770004600000046000100450000004500010021
:10478000440001004300000043000100420000001B
:104790004200010041000000410001004000010012
:1047A0003F0000003F0001003E0000003E0001000D
:1047B0003D0000003D0001003C0000003C00000006
:1047C0003C0001003B0000003B0001003A000000FB
:1047D0003A000100390000003900010038000000F3
:1047E00038000000380001003700000037000100E9
:1047F00036000000360000003600010035000000E1
:1048000035000000350001003400000034000000D5
:1048100034000100330000003300000033000100C9
:1048200032000000320000003200010031000000C0
:1048300031000000310001003000000030000000B5
:10484000300001002F0000002F0000002F000000AA
:104850002F0001002E0000002E0000002E0001009D
:104860002D0000002D0000002D0000002D00010093
:104870002C0000002C0000002C0000002C00010087
:104880002B0000002B0000002B0000002B0001007B
:104890002A0000002A0000002A0000002A0001006F
:1048A0002900000029000000290000002900000064
:1048B0002900010028000000280000002800000056
:1048C0002800000028000100270000002700000049
:1048D000270000002700000027000100260000003C
:1048E000260000002600000026000000260001002F
:1048F0002500000025000000250000002500000024
:104900002500000025000100240000002400000014
:104910002400000024000000240001002300000007
:1049200023000000230000002300000023000000FB
:1049300023000000230001002200000022000000EC
:1049400022000000220000002200000022000100DE
:1049500021000000210000002100000021000000D3
:1049600021000000210000002100010020000000C3
:1049700020000000200000002000000020000000B7
:104980002000000020000000200001001F000000A7
:104990001F0000001F0000001F0000001F0000009B
:1049A0001F0000001F0001001E0000001E0000008C
:1049B0001E0000001E0000004B616C696272696598
:1049C00072756E67204F4B004B616C696272616358
:1049D0006A61204F4B0043616C6962726163696F69
:1049E0006E204F4B0043616C696272617A696F6E31
:1049F00065204F4B004B616C696272616365204FAB
:104A00004B0043616C6962726174696F6E20646F00
:104A10006E65004B616C69627269657265205A004F
:104A20004B616C696272756A65205A0043616C69FA
:104A30006272616E646F205A0043616C69627261D8
:104A40006E646F205A004B616C696272756A6920EE
:104A50005A0043616C6962726174696E67205A0022
:104A6000426564204F4B0053746F6C696B204F4B51
:104A70002E004261736520707265706172616461BD
:104A80000050696174746F20666174746F2E004207
:104A90006564204F4B2E0042656420646F6E650094
:104AA000426564206572776165726D656E0047725C
:104AB0007A616E69652073746F6C696B612E2E006C
:104AC00043616C656E74616E646F20426173650052
:104AD00052697363616C642E206C6574746F005A44
:104AE0006168726976616E6920626564004265641E
:104AF0002048656174696E67004572776165726D03
:104B0000656E204F4B0047727A616E6965204F4B8E
:104B10002E0043616C656E74616D69656E746F2003
:104B200066696E616C2E0052697363616C642E203D
:104B3000636F6D706C65746F005A6168726976613D
:104B40006E69204F4B2E0048656174696E67206462
:104B50006F6E652E004572776165726D656E0047F8
:104B6000727A616E69652E2E2E0043616C656E74DB
:104B7000616E646F2E2E2E0052697363616C6461E6
:104B80006D656E746F2E2E2E005A616872697661A3
:104B90006E690048656174696E67005072696E7471
:104BA000657220646973636F6E6E6563746564001B
:104BB0005072757361206933204D4B32206B6C61EC
:104BC000722E005072757361206933204D4B322074
:104BD000676F746F7761005072757361206933205D
:104BE0004D4B3220707265702E00507275736120CB
:104BF0006933204D4B322070726F6E74612E0050FD
:104C000072757361206933204D4B32206F6B0050F9
:104C100072757361206933204D4B32207265616477
:104C2000792E00024AF549E549D649C849B84920D4
:104C30002020202020202020202020202020202074
:104C4000202000203A2000524A464A394A2C4A2065
:104C50004A134A202020202020202020202020200D
:104C60002020202020202000974A8F4A814A724A23
:104C7000674A604AED4ADF4AD04AC04AAE4AA04A73
:104C8000474B394B274B124B064BF94A934B894BF9
:104C9000784B6A4B5F4B554B202020202020202052
:104CA0002020202020002573002020002D2D3A2DCB
:104CB0002D002000200020004C0020200020460075
:104CC0002D2D2D003E555342005344002D2D00251F
:104CD0002020202020002020002020000120002073
:104CE00020202D2D2D200020205A002020000120E2
:104CF000004731205A3135204631353030004739B0
:104D00003100473120583530205931393020453075
:104D100020463730303000473930004D39303720A9
:104D20004535353000543000473120453520463672
:104D300030302E3030303030300047312045352093
:104D4000463630302E30303030303000473120455C
:104D50002D3520463630302E303030303030004760
:104D60003120453520463630302E3030303030302E
:104D700000473120452D3520463630302E3030303A
:104D800030303000473120453520463430302E3029
:104D9000303030303000473120452D352046383016
:104DA000302E303030303030004D32303320453509
:104DB0003000473120452D39322046393930302EE8
:104DC000303030303030004D323033204538300014
:104DD00047342050343730300047312045342046A6
:104DE000333030302E3030303030300047312045D5
:104DF000332E312046323530302E303030303030A6
:104E00000047312045332E312046323030302E30AD
:104E1000303030303000473120452D313020463899
:104E200030302E30303030303000473120452B319B
:104E30003020463830302E3030303030300047317E
:104E400020452D313020463830302E303030303053
:104E50003000473120452B313020463630302E305F
:104E6000303030303000473120452D31302046364B
:104E700030302E3030303030300047312045352052
:104E8000463630302E30303030303000473120451B
:104E90003520463430302E3030303030300047311D
:104EA00020452D32302046313230302E30303030F7
:104EB0003030004D32303320453530004731204509
:104EC0002D38322046393530302E303030303030C9
:104ED000004D3230332045383000473120453320F3
:104EE00046333430302E30303030303000473120CF
:104EF00045332E322046333030302E303030303093
:104F0000300047312045352E342046323830302E9F
:104F1000303030303030004D3230332045353000C5
:104F20004D3930372045373030004731205A313540
:104F3000204631353030004739310047312058356F
:104F4000302059313930204530204637303030005C
:104F50004D383300473930004D3834009B4B0F4CEF
:104F6000FF4BEA4BD74BC34BB04B20766F6E2039CB
:104F700000207A20390020646520390020737520D4
:104F80003900207A203900206F662039004D657382
:104F900073656E20646572205265666572656E7A0F
:104FA000686F65686520646573204B616C69627227
:104FB00069657270756E6B746573004F6B726573A3
:104FC0006C616D207779736F6B6F7363206F646EA4
:104FD00069657369656E69612070756E6B747520A3
:104FE0006B616C6962726163796A6E65676F004DAF
:104FF00065646972206C6120616C747572612064F3
:10500000656C2070756E746F206465206C61206320
:10501000616C6962726163696F6E004D697375726C
:10502000617265206C27616C74657A7A61206469AD
:10503000207269666572696D656E746F2064656C57
:105040002070756E746F2064692063616C69627290
:10505000617A696F6E65004D6572696D2072656673
:105060006572656E636E69207679736B75206B610E
:105070006C69627261636E69686F20626F6475004B
:105080004D6561737572696E6720726566657265DC
:105090006E636520686569676874206F6620636168
:1050A0006C6962726174696F6E20706F696E7400F2
:1050B000496E76616C69642062656420636F727208
:1050C000656374696F6E206D61747269782E205209
:1050D0006573657474696E6720746F206964656EAA
:1050E000746974792E00496E76616C69642062651A
:1050F0006420636F7272656374696F6E206D617492
:105100007269782E20582F5920617865732061725A
:1051100065206661722066726F6D206265696E67D8
:105120002070657270656E646963756C61722E00C3
:10513000496E76616C69642062656420636F727287
:10514000656374696F6E206D61747269782E205387
:1051500068696674206F7574206F662072616E676F
:10516000652E005A65726F20706F696E7420636FD0
:105170007272656374696F6E3A00496E76616C692C
:10518000642062656420636F7272656374696F6E18
:10519000206D61747269782E204C656E677468208A
:1051A0006F6620746865205920766563746F72207D
:1051B0006F7574206F662072616E67652E005920CE
:1051C000766563746F72206C656E6774683A004927
:1051D0006E76616C69642062656420636F727265CB
:1051E0006374696F6E206D61747269782E204C65EE
:1051F0006E677468206F6620746865205820766535
:1052000063746F72206F7574206F662072616E67B1
:10521000652E005820766563746F72206C656E672A
:1052200074683A00002C200041646A7573746564E8
:1052300020706F736974696F6E3A2000002C2068CB
:105240003A002C20646D61783A0050617274696193
:105250006C20706F696E7420657374696D6174651C
:10526000642072616469757320746F6F20736D615F
:105270006C6C3A2000005061727469616C20706F30
:10528000696E74206469616D6574657220746F6FF6
:1052900020736D616C6C3A2000746F7000726967E6
:1052A0006874006C656674007269676874006C6588
:1052B000667400746F70006661696C6564202D20EF
:1052C0006E6F7420666F756E640A00726967687429
:1052D000006C65667400002C2000496E6974696179
:1052E0006C20706F736974696F6E3A200045787234
:1052F000656D65207370616E206F6620746865202F
:105300005A2076616C756573210000004041FCFFF6
:10531000FFBF0000E442FCFFFFBF00005743FCFF5B
:10532000FFBF000057430000C0420000E4420000FD
:10533000C042000040410000C04200004041000067
:1053400042430000E4420000424300005743000093
:105350004243874F824F7C4F764F714F6A4F805048
:1053600057501B50EF4FBB4F8D4F6B6172746120D4
:105370005344205B6E6F726D616C5D00534420631B
:10538000617264205B6E6F726D616C5D006B617247
:1053900074612053445B466C73684169725D0053CD
:1053A000442063617264205B466C73684169725D7E
:1053B00000576165686C65205370726163686500B1
:1053C0005779626F72206A657A796B610043616D0B
:1053D0006269616520656C206964696F6D61005365
:1053E000656C657A696F6E61206C696E67756100C6
:1053F0005679626572206A617A796B610053656CD7
:10540000656374206C616E677561676500446561F2
:105410006B74697669657265204D6F746F720057A1
:10542000796C61637A79632073696C6E696B69006A
:10543000417061676172206D6F746F7265730044B3
:1054400069736162696C6974206D6F746F72690051
:105450005679706E6F7574206D6F746F7279004439
:10546000697361626C652073746570706572730036
:1054700042657765676520416368736500527563AF
:1054800068206F7369004D6F76657220656A657379
:10549000004D756F7669206173736500506F737589
:1054A0006E6F7574206F7375004D6F76652061782F
:1054B00069730054656D706572617475720054652E
:1054C0006D70657261747572610054656D7065729E
:1054D00061747572610054656D7065726174757286
:1054E00061005465706C6F74610054656D70657215
:1054F00061747572650053656C627374746573745E
:10550000204F4B004175746F74657374204F4B00CE
:1055100053656C662074657374204F4B005265733D
:1055200065742058595A204B616C6962722E005282
:1055300065736574206B616C6962722E2058595ACC
:105540000052657365742058595A206B616C69620A
:10555000722E0052657365742058595A2063616C2D
:105560006962722E00416E7A656967656E20656EAC
:105570006473746F707300506F6B617A206B72612B
:105580006E636F776B6900456E73656E6120746F33
:1055900070652066696E616C00537461746F20667B
:1055A000696E65636F7273610053746176206B6F0F
:1055B0006E632E207370696E2E0053686F772065BE
:1055C0006E642073746F707300426564206C65763E
:1055D000656C204B6F7272656B74004B6F72656BFC
:1055E000746120706F646B6C61646B6900436F72EF
:1055F000722E206465206C612063616D6100436FD1
:105600007272657A2E206C69762E6C6574746F00E8
:105610004B6F72656B636520706F646C6F7A6B792A
:1056200000426564206C6576656C20636F727265FC
:105630006374005374617274706F736974696F6E10
:10564000004C6C6576617220616C206F72696765D1
:105650006E0054726F7661206F726967696E6500C3
:105660004175746F20686F6D65004D657368206CBF
:105670006976656C2E206C6574746F004D65736877
:1056800020426564204C6576656C696E67004B61ED
:105690006C696272696572656E205A004B616C6953
:1056A0006272756A205A0043616C6962726172208D
:1056B0005A0043616C69627261205A004B616C69E7
:1056C00062726F766174205A0043616C6962726124
:1056D0007465205A004B616C696272696572756EFF
:1056E000672058595A004B616C69627261636A6144
:1056F0002058595A0043616C696272612058595AA6
:105700000043616C696272612058595A004B616CA8
:105710006962726163652058595A0043616C69621D
:10572000726174652058595A0053656C62737474C1
:1057300065737420202020202020004175746F7430
:10574000657374004175746F746573740053656C90
:1057500066746573742020202020202020200047BC
:105760003830004D3435205A0047393900446973C8
:1057700061626C65206661726D206D6F64653F00CB
:1057800044697361626C65206661726D206D6F643F
:1057900065004661726D206E756D626572007C53A6
:1057A0007C537C537C536A537C539F539F539F532A
:1057B0009F538D539F53FD53F053DF53CD53C0532D
:1057C000B1534D3834005F5450543F5430541F543B
:1057D0000D54A9549C54915486547D547054EA54E9
:1057E000E254D654CA54BE54B354105510550455FF
:1057F00010551055F6544D383400473238205700B4
:105800004D3435004D34340053554155535553559F
:105810002F551D55BA55A955995587557755655535
:1058200021561056FE55ED55DB55C95547323820E7
:1058300057006056605652564156605633567C5655
:105840007C566A567C567C567C56C956BC56B25617
:10585000A7569C568E561B570D570157F556E656C0
:10586000D5564D574D5744573B574D5729574578B7
:105870007472756972004D756F7669204573747224
:1058800075736F7265004578747275646572004255
:105890006577656765205A0050727A6573756E6129
:1058A00063205A004D6F766572205A004D756F76F1
:1058B00069205A00506F73756E6F7574205A004DD1
:1058C0006F7665205A0042657765676520590050FC
:1058D000727A6573756E61632059004D6F766572DB
:1058E0002059004D756F7669205900506F73756EA1
:1058F0006F75742059004D6F7665205900426577A9
:1059000065676520580050727A6573756E61632013
:1059100058004D6F7665722058004D756F7669207E
:105920005800506F73756E6F75742058004D6F7608
:105930006520580020003E003E0020003E003E0052
:105940005A30005A3100593000593100583000584F
:105950003100456E642073746F70732064696167F1
:10596000008658865876586E5886588658BF58B460
:1059700058AC58A45898588F58F658EB58E358DB51
:1059800058CF58C6582D5922591A5912590659FD3F
:1059900058576F72776165726D656E2044756573D7
:1059A00065004E6167727A656A206479737A652151
:1059B0000050726563616C656E7461722065787405
:1059C0007275736F72005072657269732E207567FD
:1059D000656C6C6F210050726564656872656A74ED
:1059E0006520747279736B7521005072656865610A
:1059F0007420746865206E6F7A7A6C652100464564
:105A0000484C45523A00424C41443A004552524FAC
:105A100052453A0043485942413A004552524F528A
:105A20003A00506F6D6F6300536F706F7274650052
:105A3000506F64706F726100537570706F72740094
:105A400053746174697374696B656E20005374617B
:105A500074797374796B6120200045737461646993
:105A6000737469636120200053746174697374698D
:105A70006368650053746174697374696B61202095
:105A800000537461746973746963732020004B61FF
:105A90006C696272696572756E67004B616C6962F0
:105AA0007261636A610043616C6962726163696F0C
:105AB0006E0043616C696272617A696F6E65004B5A
:105AC000616C6962726163650043616C69627261F5
:105AD00074696F6E00456E746E65686D2066696CE2
